{
  "contractName": "SolutionAssetVerifier",
  "abi": [
    {
      "inputs": [
        {
          "internalType": "address",
          "name": "assetVerifierContractAddress",
          "type": "address"
        }
      ],
      "payable": false,
      "stateMutability": "nonpayable",
      "type": "constructor"
    },
    {
      "anonymous": false,
      "inputs": [
        {
          "indexed": true,
          "internalType": "address",
          "name": "owner",
          "type": "address"
        },
        {
          "indexed": true,
          "internalType": "address",
          "name": "approved",
          "type": "address"
        },
        {
          "indexed": true,
          "internalType": "uint256",
          "name": "tokenId",
          "type": "uint256"
        }
      ],
      "name": "Approval",
      "type": "event"
    },
    {
      "anonymous": false,
      "inputs": [
        {
          "indexed": true,
          "internalType": "address",
          "name": "owner",
          "type": "address"
        },
        {
          "indexed": true,
          "internalType": "address",
          "name": "operator",
          "type": "address"
        },
        {
          "indexed": false,
          "internalType": "bool",
          "name": "approved",
          "type": "bool"
        }
      ],
      "name": "ApprovalForAll",
      "type": "event"
    },
    {
      "anonymous": false,
      "inputs": [
        {
          "indexed": true,
          "internalType": "address",
          "name": "oldOwner",
          "type": "address"
        },
        {
          "indexed": true,
          "internalType": "address",
          "name": "newOwner",
          "type": "address"
        }
      ],
      "name": "OwnershipTransferred",
      "type": "event"
    },
    {
      "anonymous": false,
      "inputs": [
        {
          "indexed": false,
          "internalType": "address",
          "name": "account",
          "type": "address"
        }
      ],
      "name": "Paused",
      "type": "event"
    },
    {
      "anonymous": false,
      "inputs": [
        {
          "indexed": false,
          "internalType": "uint256",
          "name": "index",
          "type": "uint256"
        },
        {
          "indexed": false,
          "internalType": "address",
          "name": "owner",
          "type": "address"
        }
      ],
      "name": "SolutionAdded",
      "type": "event"
    },
    {
      "anonymous": false,
      "inputs": [
        {
          "indexed": true,
          "internalType": "address",
          "name": "from",
          "type": "address"
        },
        {
          "indexed": true,
          "internalType": "address",
          "name": "to",
          "type": "address"
        },
        {
          "indexed": true,
          "internalType": "uint256",
          "name": "tokenId",
          "type": "uint256"
        }
      ],
      "name": "Transfer",
      "type": "event"
    },
    {
      "anonymous": false,
      "inputs": [
        {
          "indexed": false,
          "internalType": "address",
          "name": "account",
          "type": "address"
        }
      ],
      "name": "Unpaused",
      "type": "event"
    },
    {
      "constant": false,
      "inputs": [
        {
          "internalType": "bytes32",
          "name": "_myid",
          "type": "bytes32"
        },
        {
          "internalType": "string",
          "name": "_result",
          "type": "string"
        }
      ],
      "name": "__callback",
      "outputs": [],
      "payable": false,
      "stateMutability": "nonpayable",
      "type": "function"
    },
    {
      "constant": false,
      "inputs": [
        {
          "internalType": "bytes32",
          "name": "_myid",
          "type": "bytes32"
        },
        {
          "internalType": "string",
          "name": "_result",
          "type": "string"
        },
        {
          "internalType": "bytes",
          "name": "_proof",
          "type": "bytes"
        }
      ],
      "name": "__callback",
      "outputs": [],
      "payable": false,
      "stateMutability": "nonpayable",
      "type": "function"
    },
    {
      "constant": false,
      "inputs": [
        {
          "internalType": "address",
          "name": "to",
          "type": "address"
        },
        {
          "internalType": "uint256",
          "name": "tokenId",
          "type": "uint256"
        }
      ],
      "name": "approve",
      "outputs": [],
      "payable": false,
      "stateMutability": "nonpayable",
      "type": "function"
    },
    {
      "constant": true,
      "inputs": [
        {
          "internalType": "address",
          "name": "owner",
          "type": "address"
        }
      ],
      "name": "balanceOf",
      "outputs": [
        {
          "internalType": "uint256",
          "name": "",
          "type": "uint256"
        }
      ],
      "payable": false,
      "stateMutability": "view",
      "type": "function"
    },
    {
      "constant": true,
      "inputs": [
        {
          "internalType": "uint256",
          "name": "tokenId",
          "type": "uint256"
        }
      ],
      "name": "getApproved",
      "outputs": [
        {
          "internalType": "address",
          "name": "",
          "type": "address"
        }
      ],
      "payable": false,
      "stateMutability": "view",
      "type": "function"
    },
    {
      "constant": true,
      "inputs": [],
      "name": "getOwner",
      "outputs": [
        {
          "internalType": "address",
          "name": "",
          "type": "address"
        }
      ],
      "payable": false,
      "stateMutability": "view",
      "type": "function"
    },
    {
      "constant": true,
      "inputs": [
        {
          "internalType": "address",
          "name": "owner",
          "type": "address"
        },
        {
          "internalType": "address",
          "name": "operator",
          "type": "address"
        }
      ],
      "name": "isApprovedForAll",
      "outputs": [
        {
          "internalType": "bool",
          "name": "",
          "type": "bool"
        }
      ],
      "payable": false,
      "stateMutability": "view",
      "type": "function"
    },
    {
      "constant": false,
      "inputs": [
        {
          "internalType": "address",
          "name": "to",
          "type": "address"
        },
        {
          "internalType": "uint256",
          "name": "tokenId",
          "type": "uint256"
        }
      ],
      "name": "mint",
      "outputs": [],
      "payable": false,
      "stateMutability": "nonpayable",
      "type": "function"
    },
    {
      "constant": true,
      "inputs": [
        {
          "internalType": "uint256",
          "name": "tokenId",
          "type": "uint256"
        }
      ],
      "name": "ownerOf",
      "outputs": [
        {
          "internalType": "address",
          "name": "",
          "type": "address"
        }
      ],
      "payable": false,
      "stateMutability": "view",
      "type": "function"
    },
    {
      "constant": false,
      "inputs": [
        {
          "internalType": "address",
          "name": "from",
          "type": "address"
        },
        {
          "internalType": "address",
          "name": "to",
          "type": "address"
        },
        {
          "internalType": "uint256",
          "name": "tokenId",
          "type": "uint256"
        }
      ],
      "name": "safeTransferFrom",
      "outputs": [],
      "payable": false,
      "stateMutability": "nonpayable",
      "type": "function"
    },
    {
      "constant": false,
      "inputs": [
        {
          "internalType": "address",
          "name": "from",
          "type": "address"
        },
        {
          "internalType": "address",
          "name": "to",
          "type": "address"
        },
        {
          "internalType": "uint256",
          "name": "tokenId",
          "type": "uint256"
        },
        {
          "internalType": "bytes",
          "name": "_data",
          "type": "bytes"
        }
      ],
      "name": "safeTransferFrom",
      "outputs": [],
      "payable": false,
      "stateMutability": "nonpayable",
      "type": "function"
    },
    {
      "constant": false,
      "inputs": [
        {
          "internalType": "address",
          "name": "to",
          "type": "address"
        },
        {
          "internalType": "bool",
          "name": "approved",
          "type": "bool"
        }
      ],
      "name": "setApprovalForAll",
      "outputs": [],
      "payable": false,
      "stateMutability": "nonpayable",
      "type": "function"
    },
    {
      "constant": false,
      "inputs": [
        {
          "internalType": "bool",
          "name": "paused",
          "type": "bool"
        }
      ],
      "name": "setPauseState",
      "outputs": [],
      "payable": false,
      "stateMutability": "nonpayable",
      "type": "function"
    },
    {
      "constant": false,
      "inputs": [
        {
          "internalType": "uint256",
          "name": "tokenId",
          "type": "uint256"
        }
      ],
      "name": "setTokenURI",
      "outputs": [],
      "payable": false,
      "stateMutability": "nonpayable",
      "type": "function"
    },
    {
      "constant": true,
      "inputs": [
        {
          "internalType": "bytes4",
          "name": "interfaceId",
          "type": "bytes4"
        }
      ],
      "name": "supportsInterface",
      "outputs": [
        {
          "internalType": "bool",
          "name": "",
          "type": "bool"
        }
      ],
      "payable": false,
      "stateMutability": "view",
      "type": "function"
    },
    {
      "constant": true,
      "inputs": [
        {
          "internalType": "uint256",
          "name": "index",
          "type": "uint256"
        }
      ],
      "name": "tokenByIndex",
      "outputs": [
        {
          "internalType": "uint256",
          "name": "",
          "type": "uint256"
        }
      ],
      "payable": false,
      "stateMutability": "view",
      "type": "function"
    },
    {
      "constant": true,
      "inputs": [
        {
          "internalType": "address",
          "name": "owner",
          "type": "address"
        },
        {
          "internalType": "uint256",
          "name": "index",
          "type": "uint256"
        }
      ],
      "name": "tokenOfOwnerByIndex",
      "outputs": [
        {
          "internalType": "uint256",
          "name": "",
          "type": "uint256"
        }
      ],
      "payable": false,
      "stateMutability": "view",
      "type": "function"
    },
    {
      "constant": true,
      "inputs": [
        {
          "internalType": "uint256",
          "name": "tokenId",
          "type": "uint256"
        }
      ],
      "name": "tokenURI",
      "outputs": [
        {
          "internalType": "string",
          "name": "",
          "type": "string"
        }
      ],
      "payable": false,
      "stateMutability": "view",
      "type": "function"
    },
    {
      "constant": true,
      "inputs": [],
      "name": "totalSupply",
      "outputs": [
        {
          "internalType": "uint256",
          "name": "",
          "type": "uint256"
        }
      ],
      "payable": false,
      "stateMutability": "view",
      "type": "function"
    },
    {
      "constant": false,
      "inputs": [
        {
          "internalType": "address",
          "name": "from",
          "type": "address"
        },
        {
          "internalType": "address",
          "name": "to",
          "type": "address"
        },
        {
          "internalType": "uint256",
          "name": "tokenId",
          "type": "uint256"
        }
      ],
      "name": "transferFrom",
      "outputs": [],
      "payable": false,
      "stateMutability": "nonpayable",
      "type": "function"
    },
    {
      "constant": false,
      "inputs": [
        {
          "internalType": "address",
          "name": "newOwner",
          "type": "address"
        }
      ],
      "name": "transferOwnership",
      "outputs": [],
      "payable": false,
      "stateMutability": "nonpayable",
      "type": "function"
    },
    {
      "constant": false,
      "inputs": [],
      "name": "addSolution",
      "outputs": [],
      "payable": false,
      "stateMutability": "nonpayable",
      "type": "function"
    },
    {
      "constant": false,
      "inputs": [
        {
          "internalType": "uint256[2]",
          "name": "a",
          "type": "uint256[2]"
        },
        {
          "internalType": "uint256[2][2]",
          "name": "b",
          "type": "uint256[2][2]"
        },
        {
          "internalType": "uint256[2]",
          "name": "c",
          "type": "uint256[2]"
        },
        {
          "internalType": "uint256[2]",
          "name": "input",
          "type": "uint256[2]"
        },
        {
          "internalType": "uint256",
          "name": "index",
          "type": "uint256"
        }
      ],
      "name": "mintDecentralizedHousingToken",
      "outputs": [],
      "payable": false,
      "stateMutability": "nonpayable",
      "type": "function"
    }
  ],
  "bytecode": "0x60806040526040518060400160405280601a81526020017f49446563656e7472616c697a6564486f7573696e67546f6b656e00000000000081525060139080519060200190620000519291906200053e565b506040518060400160405280600481526020017f4944485400000000000000000000000000000000000000000000000000000000815250601490805190602001906200009f9291906200053e565b506040518060600160405280603f8152602001620038b1603f913960159080519060200190620000d19291906200053e565b50348015620000df57600080fd5b50604051620038f0380380620038f0833981810160405260208110156200010557600080fd5b810190808051906020019092919050505060138054600181600116156101000203166002900480601f016020809104026020016040519081016040528092919081815260200182805460018160011615610100020316600290048015620001b05780601f106200018457610100808354040283529160200191620001b0565b820191906000526020600020905b8154815290600101906020018083116200019257829003601f168201915b505050505060148054600181600116156101000203166002900480601f0160208091040260200160405190810160405280929190818152602001828054600181600116156101000203166002900480156200024f5780601f1062000223576101008083540402835291602001916200024f565b820191906000526020600020905b8154815290600101906020018083116200023157829003601f168201915b505050505060158054600181600116156101000203166002900480601f016020809104026020016040519081016040528092919081815260200182805460018160011615610100020316600290048015620002ee5780601f10620002c257610100808354040283529160200191620002ee565b820191906000526020600020905b815481529060010190602001808311620002d057829003601f168201915b5050505050336000806101000a81548173ffffffffffffffffffffffffffffffffffffffff021916908373ffffffffffffffffffffffffffffffffffffffff1602179055503373ffffffffffffffffffffffffffffffffffffffff16600073ffffffffffffffffffffffffffffffffffffffff167f8be0079c531659141344cd1fd0a4f28419497f9722a3daafe3b4186f6b6457e060405160405180910390a360008060146101000a81548160ff021916908315150217905550620003c06301ffc9a760e01b6200049e60201b60201c565b620003d86380ac58cd60e01b6200049e60201b60201c565b620003f063780e9d6360e01b6200049e60201b60201c565b82600f9080519060200190620004089291906200053e565b508160109080519060200190620004219291906200053e565b5080601190805190602001906200043a9291906200053e565b5062000453635b5e139f60e01b6200049e60201b60201c565b50505080601860006101000a81548173ffffffffffffffffffffffffffffffffffffffff021916908373ffffffffffffffffffffffffffffffffffffffff16021790555050620005ed565b63ffffffff60e01b817bffffffffffffffffffffffffffffffffffffffffffffffffffffffff19161415620004d257600080fd5b6001806000837bffffffffffffffffffffffffffffffffffffffffffffffffffffffff19167bffffffffffffffffffffffffffffffffffffffffffffffffffffffff1916815260200190815260200160002060006101000a81548160ff02191690831515021790555050565b828054600181600116156101000203166002900490600052602060002090601f016020900481019282601f106200058157805160ff1916838001178555620005b2565b82800160010185558215620005b2579182015b82811115620005b157825182559160200191906001019062000594565b5b509050620005c19190620005c5565b5090565b620005ea91905b80821115620005e6576000816000905550600101620005cc565b5090565b90565b6132b480620005fd6000396000f3fe608060405234801561001057600080fd5b506004361061014d5760003560e01c806342842e0e116100c3578063b88d4fde1161007c578063b88d4fde14610955578063bff2612614610a5a578063c87b56dd14610a88578063cdb88ad114610b2f578063e985e9c514610b5f578063f2fde38b14610bdb5761014d565b806342842e0e146107455780634f6ccce7146107b35780636352211e146107f557806370a0823114610863578063893d20e8146108bb578063a22cb465146109055761014d565b806323b872dd1161011557806323b872dd146103fc57806327dc297e1461046a5780632f745c591461052f57806338bbfa50146105915780633adf31e9146106ed57806340c10f19146106f75761014d565b806301ffc9a714610152578063081812fc146101b7578063095ea7b31461022557806318160ddd146102735780631f5d0e2214610291575b600080fd5b61019d6004803603602081101561016857600080fd5b8101908080357bffffffffffffffffffffffffffffffffffffffffffffffffffffffff19169060200190929190505050610c1f565b604051808215151515815260200191505060405180910390f35b6101e3600480360360208110156101cd57600080fd5b8101908080359060200190929190505050610c87565b604051808273ffffffffffffffffffffffffffffffffffffffff1673ffffffffffffffffffffffffffffffffffffffff16815260200191505060405180910390f35b6102716004803603604081101561023b57600080fd5b81019080803573ffffffffffffffffffffffffffffffffffffffff16906020019092919080359060200190929190505050610d3f565b005b61027b610f35565b6040518082815260200191505060405180910390f35b6103fa60048036036101608110156102a857600080fd5b8101908080604001906002806020026040519081016040528092919082600260200280828437600081840152601f19601f82011690508083019250505050505091929192908060800190600280602002604051908101604052809291906000905b8282101561035d578382604002016002806020026040519081016040528092919082600260200280828437600081840152601f19601f82011690508083019250505050505081526020019060010190610309565b50505050919291929080604001906002806020026040519081016040528092919082600260200280828437600081840152601f19601f820116905080830192505050505050919291929080604001906002806020026040519081016040528092919082600260200280828437600081840152601f19601f820116905080830192505050505050919291929080359060200190929190505050610f42565b005b6104686004803603606081101561041257600080fd5b81019080803573ffffffffffffffffffffffffffffffffffffffff169060200190929190803573ffffffffffffffffffffffffffffffffffffffff16906020019092919080359060200190929190505050611343565b005b61052d6004803603604081101561048057600080fd5b8101908080359060200190929190803590602001906401000000008111156104a757600080fd5b8201836020820111156104b957600080fd5b803590602001918460018302840111640100000000831117156104db57600080fd5b91908080601f016020809104026020016040519081016040528093929190818152602001838380828437600081840152601f19601f820116905080830192505050505050509192919290505050611366565b005b61057b6004803603604081101561054557600080fd5b81019080803573ffffffffffffffffffffffffffffffffffffffff169060200190929190803590602001909291905050506113a9565b6040518082815260200191505060405180910390f35b6106eb600480360360608110156105a757600080fd5b8101908080359060200190929190803590602001906401000000008111156105ce57600080fd5b8201836020820111156105e057600080fd5b8035906020019184600183028401116401000000008311171561060257600080fd5b91908080601f016020809104026020016040519081016040528093929190818152602001838380828437600081840152601f19601f8201169050808301925050505050505091929192908035906020019064010000000081111561066557600080fd5b82018360208201111561067757600080fd5b8035906020019184600183028401116401000000008311171561069957600080fd5b91908080601f016020809104026020016040519081016040528093929190818152602001838380828437600081840152601f19601f82011690508083019250505050505050919291929050505061141c565b005b6106f5611421565b005b6107436004803603604081101561070d57600080fd5b81019080803573ffffffffffffffffffffffffffffffffffffffff16906020019092919080359060200190929190505050611553565b005b6107b16004803603606081101561075b57600080fd5b81019080803573ffffffffffffffffffffffffffffffffffffffff169060200190929190803573ffffffffffffffffffffffffffffffffffffffff1690602001909291908035906020019092919050505061162c565b005b6107df600480360360208110156107c957600080fd5b810190808035906020019092919050505061164c565b6040518082815260200191505060405180910390f35b6108216004803603602081101561080b57600080fd5b8101908080359060200190929190505050611680565b604051808273ffffffffffffffffffffffffffffffffffffffff1673ffffffffffffffffffffffffffffffffffffffff16815260200191505060405180910390f35b6108a56004803603602081101561087957600080fd5b81019080803573ffffffffffffffffffffffffffffffffffffffff1690602001909291905050506116bd565b6040518082815260200191505060405180910390f35b6108c361170d565b604051808273ffffffffffffffffffffffffffffffffffffffff1673ffffffffffffffffffffffffffffffffffffffff16815260200191505060405180910390f35b6109536004803603604081101561091b57600080fd5b81019080803573ffffffffffffffffffffffffffffffffffffffff169060200190929190803515159060200190929190505050611736565b005b610a586004803603608081101561096b57600080fd5b81019080803573ffffffffffffffffffffffffffffffffffffffff169060200190929190803573ffffffffffffffffffffffffffffffffffffffff16906020019092919080359060200190929190803590602001906401000000008111156109d257600080fd5b8201836020820111156109e457600080fd5b80359060200191846001830284011164010000000083111715610a0657600080fd5b91908080601f016020809104026020016040519081016040528093929190818152602001838380828437600081840152601f19601f820116905080830192505050505050509192919290505050611870565b005b610a8660048036036020811015610a7057600080fd5b8101908080359060200190929190505050611896565b005b610ab460048036036020811015610a9e57600080fd5b81019080803590602001909291905050506119e7565b6040518080602001828103825283818151815260200191508051906020019080838360005b83811015610af4578082015181840152602081019050610ad9565b50505050905090810190601f168015610b215780820380516001836020036101000a031916815260200191505b509250505060405180910390f35b610b5d60048036036020811015610b4557600080fd5b81019080803515159060200190929190505050611aae565b005b610bc160048036036040811015610b7557600080fd5b81019080803573ffffffffffffffffffffffffffffffffffffffff169060200190929190803573ffffffffffffffffffffffffffffffffffffffff169060200190929190505050611ce2565b604051808215151515815260200191505060405180910390f35b610c1d60048036036020811015610bf157600080fd5b81019080803573ffffffffffffffffffffffffffffffffffffffff169060200190929190505050611d76565b005b600060016000837bffffffffffffffffffffffffffffffffffffffffffffffffffffffff19167bffffffffffffffffffffffffffffffffffffffffffffffffffffffff1916815260200190815260200160002060009054906101000a900460ff169050919050565b6000610c9282611fff565b610d04576040517f08c379a00000000000000000000000000000000000000000000000000000000081526004018080602001828103825260198152602001807f5468697320746f6b656e20646f6573206e6f742065786973740000000000000081525060200191505060405180910390fd5b6003600083815260200190815260200160002060009054906101000a900473ffffffffffffffffffffffffffffffffffffffff169050919050565b6000610d4a82611680565b90508273ffffffffffffffffffffffffffffffffffffffff168173ffffffffffffffffffffffffffffffffffffffff161415610dd1576040517f08c379a00000000000000000000000000000000000000000000000000000000081526004018080602001828103825260258152602001806132046025913960400191505060405180910390fd5b8073ffffffffffffffffffffffffffffffffffffffff163373ffffffffffffffffffffffffffffffffffffffff161480610e115750610e103382611ce2565b5b610e83576040517f08c379a000000000000000000000000000000000000000000000000000000000815260040180806020018281038252601a8152602001807f5265717569726573207265676973746572656420656e7469747900000000000081525060200191505060405180910390fd5b826003600084815260200190815260200160002060006101000a81548173ffffffffffffffffffffffffffffffffffffffff021916908373ffffffffffffffffffffffffffffffffffffffff160217905550818373ffffffffffffffffffffffffffffffffffffffff168273ffffffffffffffffffffffffffffffffffffffff167f8c5be1e5ebec7d5bd14f71427d1e84f3dd0314c0f7b2291e5b200ac8c7c3b92560405160405180910390a4505050565b6000600880549050905090565b600082600060028110610f5157fe5b602002015183600160028110610f6357fe5b602002015160405160200180838152602001828152602001925050506040516020818303038152906040528051906020012090503373ffffffffffffffffffffffffffffffffffffffff1660168381548110610fbb57fe5b906000526020600020906002020160010160009054906101000a900473ffffffffffffffffffffffffffffffffffffffff1673ffffffffffffffffffffffffffffffffffffffff1614611076576040517f08c379a00000000000000000000000000000000000000000000000000000000081526004018080602001828103825260168152602001807f526571756972657320736f6c7574696f6e206f6e65720000000000000000000081525060200191505060405180910390fd5b601860009054906101000a900473ffffffffffffffffffffffffffffffffffffffff1673ffffffffffffffffffffffffffffffffffffffff1663621e9ec0878787876040518563ffffffff1660e01b81526004018085600260200280838360005b838110156110f25780820151818401526020810190506110d7565b505050509050018460026000925b818410156111465782846020020151600260200280838360005b8381101561113557808201518184015260208101905061111a565b505050509050019260010192611100565b9250505083600260200280838360005b83811015611171578082015181840152602081019050611156565b5050505090500182600260200280838360005b8381101561119f578082015181840152602081019050611184565b5050505090500194505050505060206040518083038186803b1580156111c457600080fd5b505afa1580156111d8573d6000803e3d6000fd5b505050506040513d60208110156111ee57600080fd5b8101908080519060200190929190505050611271576040517f08c379a00000000000000000000000000000000000000000000000000000000081526004018080602001828103825260108152602001807f496e76616c696420536f6c7574696f6e0000000000000000000000000000000081525060200191505060405180910390fd5b6017600082815260200190815260200160002060009054906101000a900460ff1615611305576040517f08c379a00000000000000000000000000000000000000000000000000000000081526004018080602001828103825260118152602001807f526570656174656420736f6c7574696f6e00000000000000000000000000000081525060200191505060405180910390fd5b61130f3383611553565b60016017600083815260200190815260200160002060006101000a81548160ff021916908315150217905550505050505050565b61134d3382612071565b61135657600080fd5b611361838383612106565b505050565b6113a5828260006040519080825280601f01601f19166020018201604052801561139f5781602001600182028038833980820191505090505b5061141c565b5050565b60006113b4836116bd565b82106113bf57600080fd5b600660008473ffffffffffffffffffffffffffffffffffffffff1673ffffffffffffffffffffffffffffffffffffffff168152602001908152602001600020828154811061140957fe5b9060005260206000200154905092915050565b505050565b611429613102565b604051806040016040528060168054905081526020013373ffffffffffffffffffffffffffffffffffffffff168152509050601681908060018154018082558091505090600182039060005260206000209060020201600090919290919091506000820151816000015560208201518160010160006101000a81548173ffffffffffffffffffffffffffffffffffffffff021916908373ffffffffffffffffffffffffffffffffffffffff1602179055505050507f078793128cefb19aac38a33f9e5df39f67716907f6d747e8065545699e0b2b8d81600001518260200151604051808381526020018273ffffffffffffffffffffffffffffffffffffffff1673ffffffffffffffffffffffffffffffffffffffff1681526020019250505060405180910390a150565b6000809054906101000a900473ffffffffffffffffffffffffffffffffffffffff1673ffffffffffffffffffffffffffffffffffffffff163373ffffffffffffffffffffffffffffffffffffffff1614611615576040517f08c379a000000000000000000000000000000000000000000000000000000000815260040180806020018281038252600e8152602001807f7265717569726573206f776e657200000000000000000000000000000000000081525060200191505060405180910390fd5b61161f828261212a565b61162881611896565b5050565b61164783838360405180602001604052806000815250611870565b505050565b6000611656610f35565b821061166157600080fd5b6008828154811061166e57fe5b90600052602060002001549050919050565b60006002600083815260200190815260200160002060009054906101000a900473ffffffffffffffffffffffffffffffffffffffff169050919050565b6000611706600460008473ffffffffffffffffffffffffffffffffffffffff1673ffffffffffffffffffffffffffffffffffffffff16815260200190815260200160002061214b565b9050919050565b60008060009054906101000a900473ffffffffffffffffffffffffffffffffffffffff16905090565b3373ffffffffffffffffffffffffffffffffffffffff168273ffffffffffffffffffffffffffffffffffffffff16141561176f57600080fd5b80600560003373ffffffffffffffffffffffffffffffffffffffff1673ffffffffffffffffffffffffffffffffffffffff16815260200190815260200160002060008473ffffffffffffffffffffffffffffffffffffffff1673ffffffffffffffffffffffffffffffffffffffff16815260200190815260200160002060006101000a81548160ff0219169083151502179055508173ffffffffffffffffffffffffffffffffffffffff163373ffffffffffffffffffffffffffffffffffffffff167f17307eab39ab6107e8899845ad3d59bd9653f200f220920489ca2b5937696c3183604051808215151515815260200191505060405180910390a35050565b61187b848484611343565b61188784848484612159565b61189057600080fd5b50505050565b61189f81611fff565b611911576040517f08c379a000000000000000000000000000000000000000000000000000000000815260040180806020018281038252601c8152602001807f4552433732313a20746f6b656e20646f6573206e6f742065786973740000000081525060200191505060405180910390fd5b6119bd60118054600181600116156101000203166002900480601f0160208091040260200160405190810160405280929190818152602001828054600181600116156101000203166002900480156119aa5780601f1061197f576101008083540402835291602001916119aa565b820191906000526020600020905b81548152906001019060200180831161198d57829003601f168201915b50505050506119b883612342565b61246f565b6012600083815260200190815260200160002090805190602001906119e3929190613132565b5050565b60606119f282611fff565b6119fb57600080fd5b601260008381526020019081526020016000208054600181600116156101000203166002900480601f016020809104026020016040519081016040528092919081815260200182805460018160011615610100020316600290048015611aa25780601f10611a7757610100808354040283529160200191611aa2565b820191906000526020600020905b815481529060010190602001808311611a8557829003601f168201915b50505050509050919050565b6000809054906101000a900473ffffffffffffffffffffffffffffffffffffffff1673ffffffffffffffffffffffffffffffffffffffff163373ffffffffffffffffffffffffffffffffffffffff1614611b70576040517f08c379a000000000000000000000000000000000000000000000000000000000815260040180806020018281038252600e8152602001807f7265717569726573206f776e657200000000000000000000000000000000000081525060200191505060405180910390fd5b600060149054906101000a900460ff1615611bf3576040517f08c379a00000000000000000000000000000000000000000000000000000000081526004018080602001828103825260158152602001807f49742069732070617573656420616c726561647921000000000000000000000081525060200191505060405180910390fd5b80600060146101000a81548160ff0219169083151502179055508015611c7b577f62e78cea01bee320cd4e420270b5ea74000d11b0c9f74754ebdbfc544b05a25833604051808273ffffffffffffffffffffffffffffffffffffffff1673ffffffffffffffffffffffffffffffffffffffff16815260200191505060405180910390a1611cdf565b7f5db9ee0a495bf2e6ff9c91a7834c1ba4fdd244a5e8aa4e537bd38aeae4b073aa33604051808273ffffffffffffffffffffffffffffffffffffffff1673ffffffffffffffffffffffffffffffffffffffff16815260200191505060405180910390a15b50565b6000600560008473ffffffffffffffffffffffffffffffffffffffff1673ffffffffffffffffffffffffffffffffffffffff16815260200190815260200160002060008373ffffffffffffffffffffffffffffffffffffffff1673ffffffffffffffffffffffffffffffffffffffff16815260200190815260200160002060009054906101000a900460ff16905092915050565b6000809054906101000a900473ffffffffffffffffffffffffffffffffffffffff1673ffffffffffffffffffffffffffffffffffffffff163373ffffffffffffffffffffffffffffffffffffffff1614611e38576040517f08c379a000000000000000000000000000000000000000000000000000000000815260040180806020018281038252600e8152602001807f7265717569726573206f776e657200000000000000000000000000000000000081525060200191505060405180910390fd5b600073ffffffffffffffffffffffffffffffffffffffff168173ffffffffffffffffffffffffffffffffffffffff161415611edb576040517f08c379a00000000000000000000000000000000000000000000000000000000081526004018080602001828103825260128152602001807f4164647265737320697320696e76616c6964000000000000000000000000000081525060200191505060405180910390fd5b611ee4816124b3565b15611f3a576040517f08c379a000000000000000000000000000000000000000000000000000000000815260040180806020018281038252602f815260200180613251602f913960400191505060405180910390fd5b60008060009054906101000a900473ffffffffffffffffffffffffffffffffffffffff169050816000806101000a81548173ffffffffffffffffffffffffffffffffffffffff021916908373ffffffffffffffffffffffffffffffffffffffff1602179055503373ffffffffffffffffffffffffffffffffffffffff16600073ffffffffffffffffffffffffffffffffffffffff167f8be0079c531659141344cd1fd0a4f28419497f9722a3daafe3b4186f6b6457e060405160405180910390a35050565b6000806002600084815260200190815260200160002060009054906101000a900473ffffffffffffffffffffffffffffffffffffffff169050600073ffffffffffffffffffffffffffffffffffffffff168173ffffffffffffffffffffffffffffffffffffffff161415915050919050565b60008061207d83611680565b90508073ffffffffffffffffffffffffffffffffffffffff168473ffffffffffffffffffffffffffffffffffffffff1614806120ec57508373ffffffffffffffffffffffffffffffffffffffff166120d484610c87565b73ffffffffffffffffffffffffffffffffffffffff16145b806120fd57506120fc8185611ce2565b5b91505092915050565b6121118383836124fe565b61211b8382612776565b6121258282612914565b505050565b61213482826129db565b61213e8282612914565b61214781612bf3565b5050565b600081600001549050919050565b600061217a8473ffffffffffffffffffffffffffffffffffffffff166124b3565b612187576001905061233a565b60008473ffffffffffffffffffffffffffffffffffffffff1663150b7a02338887876040518563ffffffff1660e01b8152600401808573ffffffffffffffffffffffffffffffffffffffff1673ffffffffffffffffffffffffffffffffffffffff1681526020018473ffffffffffffffffffffffffffffffffffffffff1673ffffffffffffffffffffffffffffffffffffffff16815260200183815260200180602001828103825283818151815260200191508051906020019080838360005b83811015612262578082015181840152602081019050612247565b50505050905090810190601f16801561228f5780820380516001836020036101000a031916815260200191505b5095505050505050602060405180830381600087803b1580156122b157600080fd5b505af11580156122c5573d6000803e3d6000fd5b505050506040513d60208110156122db57600080fd5b8101908080519060200190929190505050905063150b7a0260e01b7bffffffffffffffffffffffffffffffffffffffffffffffffffffffff1916817bffffffffffffffffffffffffffffffffffffffffffffffffffffffff1916149150505b949350505050565b6060600082141561238a576040518060400160405280600181526020017f3000000000000000000000000000000000000000000000000000000000000000815250905061246a565b600082905060005b600082146123b4578080600101915050600a82816123ac57fe5b049150612392565b6060816040519080825280601f01601f1916602001820160405280156123e95781602001600182028038833980820191505090505b50905060006001830390505b6000861461246257600a868161240757fe5b0660300160f81b8282806001900393508151811061242157fe5b60200101907effffffffffffffffffffffffffffffffffffffffffffffffffffffffffffff1916908160001a905350600a868161245a57fe5b0495506123f5565b819450505050505b919050565b60606124ab8383604051806020016040528060008152506040518060200160405280600081525060405180602001604052806000815250612c3f565b905092915050565b60008060007fc5d2460186f7233c927e7db2dcc703c0e500b653ca82273b7bfad8045d85a47060001b9050833f91508082141580156124f557506000801b8214155b92505050919050565b8273ffffffffffffffffffffffffffffffffffffffff1661251e82611680565b73ffffffffffffffffffffffffffffffffffffffff161461258a576040517f08c379a00000000000000000000000000000000000000000000000000000000081526004018080602001828103825260288152602001806132296028913960400191505060405180910390fd5b600073ffffffffffffffffffffffffffffffffffffffff168273ffffffffffffffffffffffffffffffffffffffff16141561262d576040517f08c379a000000000000000000000000000000000000000000000000000000000815260040180806020018281038252601b8152602001807f496e76616c69642064657374696e6174696f6e2061646472657373000000000081525060200191505060405180910390fd5b61263681612f01565b61267d600460008573ffffffffffffffffffffffffffffffffffffffff1673ffffffffffffffffffffffffffffffffffffffff168152602001908152602001600020612fbf565b6126c4600460008473ffffffffffffffffffffffffffffffffffffffff1673ffffffffffffffffffffffffffffffffffffffff168152602001908152602001600020612fe2565b816002600083815260200190815260200160002060006101000a81548173ffffffffffffffffffffffffffffffffffffffff021916908373ffffffffffffffffffffffffffffffffffffffff160217905550808273ffffffffffffffffffffffffffffffffffffffff168473ffffffffffffffffffffffffffffffffffffffff167fddf252ad1be2c89b69c2b068fc378daa952ba7f163c4a11628f55a4df523b3ef60405160405180910390a4505050565b60006127ce6001600660008673ffffffffffffffffffffffffffffffffffffffff1673ffffffffffffffffffffffffffffffffffffffff16815260200190815260200160002080549050612ff890919063ffffffff16565b90506000600760008481526020019081526020016000205490508181146128bb576000600660008673ffffffffffffffffffffffffffffffffffffffff1673ffffffffffffffffffffffffffffffffffffffff168152602001908152602001600020838154811061283b57fe5b9060005260206000200154905080600660008773ffffffffffffffffffffffffffffffffffffffff1673ffffffffffffffffffffffffffffffffffffffff168152602001908152602001600020838154811061289357fe5b9060005260206000200181905550816007600083815260200190815260200160002081905550505b600660008573ffffffffffffffffffffffffffffffffffffffff1673ffffffffffffffffffffffffffffffffffffffff16815260200190815260200160002080548091906001900361290d91906131b2565b5050505050565b600660008373ffffffffffffffffffffffffffffffffffffffff1673ffffffffffffffffffffffffffffffffffffffff168152602001908152602001600020805490506007600083815260200190815260200160002081905550600660008373ffffffffffffffffffffffffffffffffffffffff1673ffffffffffffffffffffffffffffffffffffffff1681526020019081526020016000208190806001815401808255809150509060018203906000526020600020016000909192909190915055505050565b600073ffffffffffffffffffffffffffffffffffffffff168273ffffffffffffffffffffffffffffffffffffffff161415612a7e576040517f08c379a00000000000000000000000000000000000000000000000000000000081526004018080602001828103825260128152602001807f4164647265737320697320696e76616c6964000000000000000000000000000081525060200191505060405180910390fd5b612a8781611fff565b15612afa576040517f08c379a00000000000000000000000000000000000000000000000000000000081526004018080602001828103825260148152602001807f546f6b656e20616c72656164792065786973747300000000000000000000000081525060200191505060405180910390fd5b816002600083815260200190815260200160002060006101000a81548173ffffffffffffffffffffffffffffffffffffffff021916908373ffffffffffffffffffffffffffffffffffffffff160217905550612b93600460008473ffffffffffffffffffffffffffffffffffffffff1673ffffffffffffffffffffffffffffffffffffffff168152602001908152602001600020612fe2565b808273ffffffffffffffffffffffffffffffffffffffff16600073ffffffffffffffffffffffffffffffffffffffff167fddf252ad1be2c89b69c2b068fc378daa952ba7f163c4a11628f55a4df523b3ef60405160405180910390a45050565b6008805490506009600083815260200190815260200160002081905550600881908060018154018082558091505090600182039060005260206000200160009091929091909150555050565b6060808690506060869050606086905060608690506060869050606081518351855187518951010101016040519080825280601f01601f191660200182016040528015612c9b5781602001600182028038833980820191505090505b509050606081905060008090506000809050600090505b8851811015612d2057888181518110612cc757fe5b602001015160f81c60f81b838380600101945081518110612ce457fe5b60200101907effffffffffffffffffffffffffffffffffffffffffffffffffffffffffffff1916908160001a9053508080600101915050612cb2565b600090505b8751811015612d9357878181518110612d3a57fe5b602001015160f81c60f81b838380600101945081518110612d5757fe5b60200101907effffffffffffffffffffffffffffffffffffffffffffffffffffffffffffff1916908160001a9053508080600101915050612d25565b600090505b8651811015612e0657868181518110612dad57fe5b602001015160f81c60f81b838380600101945081518110612dca57fe5b60200101907effffffffffffffffffffffffffffffffffffffffffffffffffffffffffffff1916908160001a9053508080600101915050612d98565b600090505b8551811015612e7957858181518110612e2057fe5b602001015160f81c60f81b838380600101945081518110612e3d57fe5b60200101907effffffffffffffffffffffffffffffffffffffffffffffffffffffffffffff1916908160001a9053508080600101915050612e0b565b600090505b8451811015612eec57848181518110612e9357fe5b602001015160f81c60f81b838380600101945081518110612eb057fe5b60200101907effffffffffffffffffffffffffffffffffffffffffffffffffffffffffffff1916908160001a9053508080600101915050612e7e565b82995050505050505050505095945050505050565b600073ffffffffffffffffffffffffffffffffffffffff166003600083815260200190815260200160002060009054906101000a900473ffffffffffffffffffffffffffffffffffffffff1673ffffffffffffffffffffffffffffffffffffffff1614612fbc5760006003600083815260200190815260200160002060006101000a81548173ffffffffffffffffffffffffffffffffffffffff021916908373ffffffffffffffffffffffffffffffffffffffff1602179055505b50565b612fd760018260000154612ff890919063ffffffff16565b816000018190555050565b6001816000016000828254019250508190555050565b600061303a83836040518060400160405280601e81526020017f536166654d6174683a207375627472616374696f6e206f766572666c6f770000815250613042565b905092915050565b60008383111582906130ef576040517f08c379a00000000000000000000000000000000000000000000000000000000081526004018080602001828103825283818151815260200191508051906020019080838360005b838110156130b4578082015181840152602081019050613099565b50505050905090810190601f1680156130e15780820380516001836020036101000a031916815260200191505b509250505060405180910390fd5b5060008385039050809150509392505050565b604051806040016040528060008152602001600073ffffffffffffffffffffffffffffffffffffffff1681525090565b828054600181600116156101000203166002900490600052602060002090601f016020900481019282601f1061317357805160ff19168380011785556131a1565b828001600101855582156131a1579182015b828111156131a0578251825591602001919060010190613185565b5b5090506131ae91906131de565b5090565b8154818355818111156131d9578183600052602060002091820191016131d891906131de565b5b505050565b61320091905b808211156131fc5760008160009055506001016131e4565b5090565b9056fe5468697320746f6b656e206973206f776e656420627920616e6f7468657220656e74697479596f752063616e2774207472616e73666572206120746f6b656e20796f7520646f6e2774206f776e43616e6e6f74207472616e73666572206f776e65727368697020746f206120636f6e7472616374206163636f756e74a265627a7a723158204cfcbd12510e4fe2e1dfb07db68985394238de283759f19c081432825427f38c64736f6c6343000510003268747470733a2f2f73332d75732d776573742d322e616d617a6f6e6177732e636f6d2f756461636974792d626c6f636b636861696e2f63617073746f6e652f",
  "source": "pragma solidity >=0.4.21 <0.6.0;\r\nimport \"./ERC721Mintable.sol\";\r\nimport \"./AssetVerifier.sol\";\r\n\r\n// define a contract call to the zokrates generated solidity contract <Verifier> or <renamedVerifier>\r\n// define another contract named SolnSquareVerifier that inherits from your ERC721Mintable class\r\n// define a solutions struct that can hold an index & an address\r\n// define an array of the above struct\r\n// define a mapping to store unique solutions submitted\r\n// Create an event to emit when a solution is added\r\n// Create a function to add the solutions to the array and emit the event\r\n// Create a function to mint new NFT only after the solution has been verified\r\n//  - make sure the solution is unique (has not been used before)\r\n//  - make sure you handle metadata as well as tokenSuplly\r\ncontract SolutionAssetVerifier is DecentralizedHousingToken {\r\n    struct Solution {\r\n        uint256 index;\r\n        address owner;\r\n    }\r\n    Solution[] private solutions;\r\n    mapping(bytes32 => bool) uniqueSolutions;\r\n    event SolutionAdded(uint256 index, address owner);\r\n    AssetVerifier private assetVerifier;\r\n\r\n    constructor(address assetVerifierContractAddress) public {\r\n        assetVerifier = AssetVerifier(assetVerifierContractAddress);\r\n    }\r\n\r\n    function addSolution() external {\r\n        Solution memory newSolution = Solution(solutions.length, msg.sender);\r\n\r\n        solutions.push(newSolution);\r\n\r\n        emit SolutionAdded(newSolution.index, newSolution.owner);\r\n    }\r\n\r\n    function mintDecentralizedHousingToken(\r\n        uint256[2] memory a,\r\n        uint256[2][2] memory b,\r\n        uint256[2] memory c,\r\n        uint256[2] memory input,\r\n        uint256 index\r\n    ) public {\r\n        bytes32 hashByte = keccak256(abi.encodePacked(input[0], input[1]));\r\n\r\n        require(solutions[index].owner == msg.sender, \"Requires solution oner\");\r\n        require(assetVerifier.verifyTx(a, b, c, input), \"Invalid Solution\");\r\n\r\n        require(!uniqueSolutions[hashByte], \"Repeated solution\");\r\n\r\n        mint(msg.sender, index);\r\n\r\n        uniqueSolutions[hashByte] = true;\r\n    }\r\n}\r\n",
  "sourcePath": "C:/Users/user/Documents/dev/udacity/DecentralizedHousingPOC/eth-contracts/contracts/SolnSquareVerifier.sol",
  "compiler": {
    "name": "solc",
    "version": "0.5.16+commit.9c3226ce.Emscripten.clang"
  },
  "schemaVersion": "3.4.0",
  "updatedAt": "2021-07-19T12:47:17.774Z",
  "networkType": "ethereum",
  "devdoc": {
    "methods": {
      "isApprovedForAll(address,address)": {
        "details": "Tells whether an operator is approved by a given owner",
        "params": {
          "operator": "operator address which you want to query the approval of",
          "owner": "owner address which you want to query the approval of"
        },
        "return": "bool whether the given operator is approved by the given owner"
      },
      "setApprovalForAll(address,bool)": {
        "details": "Sets or unsets the approval of a given operator An operator is allowed to transfer all tokens of the sender on their behalf",
        "params": {
          "approved": "representing the status of the approval to be set",
          "to": "operator address to set the approval"
        }
      },
      "supportsInterface(bytes4)": {
        "details": "implement supportsInterface(bytes4) using a lookup table"
      },
      "tokenByIndex(uint256)": {
        "details": "Gets the token ID at a given index of all the tokens in this contract Reverts if the index is greater or equal to the total number of tokens",
        "params": {
          "index": "uint256 representing the index to be accessed of the tokens list"
        },
        "return": "uint256 token ID at the given index of the tokens list"
      },
      "tokenOfOwnerByIndex(address,uint256)": {
        "details": "Gets the token ID at a given index of the tokens list of the requested owner",
        "params": {
          "index": "uint256 representing the index to be accessed of the requested tokens list",
          "owner": "address owning the tokens list to be accessed"
        },
        "return": "uint256 token ID at the given index of the tokens list owned by the requested address"
      },
      "totalSupply()": {
        "details": "Gets the total amount of tokens stored by the contract",
        "return": "uint256 representing the total amount of tokens"
      }
    }
  },
  "userdoc": {
    "methods": {}
  }
}